{
  "_format": "hh-sol-artifact-1",
  "contractName": "RandomIpfsNft",
  "sourceName": "contracts/RandomIpfs.sol",
  "abi": [
    {
      "inputs": [
        {
          "internalType": "address",
          "name": "vrfCoordinatorV2",
          "type": "address"
        },
        {
          "internalType": "uint64",
          "name": "subscriptionId",
          "type": "uint64"
        },
        {
          "internalType": "bytes32",
          "name": "gasLane",
          "type": "bytes32"
        },
        {
          "internalType": "uint32",
          "name": "callbackGasLimit",
          "type": "uint32"
        },
        {
          "internalType": "string[3]",
          "name": "dogTokenUris",
          "type": "string[3]"
        },
        {
          "internalType": "uint256",
          "name": "mintFee",
          "type": "uint256"
        }
      ],
      "stateMutability": "nonpayable",
      "type": "constructor"
    },
    {
      "inputs": [],
      "name": "NeedMoreETHSend",
      "type": "error"
    },
    {
      "inputs": [
        {
          "internalType": "address",
          "name": "have",
          "type": "address"
        },
        {
          "internalType": "address",
          "name": "want",
          "type": "address"
        }
      ],
      "name": "OnlyCoordinatorCanFulfill",
      "type": "error"
    },
    {
      "inputs": [],
      "name": "RandomIpfsNft__RangeOutOfBounds",
      "type": "error"
    },
    {
      "inputs": [],
      "name": "TransferFailed",
      "type": "error"
    },
    {
      "anonymous": false,
      "inputs": [
        {
          "indexed": true,
          "internalType": "address",
          "name": "owner",
          "type": "address"
        },
        {
          "indexed": true,
          "internalType": "address",
          "name": "approved",
          "type": "address"
        },
        {
          "indexed": true,
          "internalType": "uint256",
          "name": "tokenId",
          "type": "uint256"
        }
      ],
      "name": "Approval",
      "type": "event"
    },
    {
      "anonymous": false,
      "inputs": [
        {
          "indexed": true,
          "internalType": "address",
          "name": "owner",
          "type": "address"
        },
        {
          "indexed": true,
          "internalType": "address",
          "name": "operator",
          "type": "address"
        },
        {
          "indexed": false,
          "internalType": "bool",
          "name": "approved",
          "type": "bool"
        }
      ],
      "name": "ApprovalForAll",
      "type": "event"
    },
    {
      "anonymous": false,
      "inputs": [
        {
          "indexed": false,
          "internalType": "enum RandomIpfsNft.Breed",
          "name": "dogBreed",
          "type": "uint8"
        },
        {
          "indexed": false,
          "internalType": "address",
          "name": "minter",
          "type": "address"
        }
      ],
      "name": "NftMinted",
      "type": "event"
    },
    {
      "anonymous": false,
      "inputs": [
        {
          "indexed": true,
          "internalType": "uint256",
          "name": "requestId",
          "type": "uint256"
        },
        {
          "indexed": false,
          "internalType": "address",
          "name": "requestor",
          "type": "address"
        }
      ],
      "name": "NftRequested",
      "type": "event"
    },
    {
      "anonymous": false,
      "inputs": [
        {
          "indexed": true,
          "internalType": "address",
          "name": "previousOwner",
          "type": "address"
        },
        {
          "indexed": true,
          "internalType": "address",
          "name": "newOwner",
          "type": "address"
        }
      ],
      "name": "OwnershipTransferred",
      "type": "event"
    },
    {
      "anonymous": false,
      "inputs": [
        {
          "indexed": true,
          "internalType": "address",
          "name": "from",
          "type": "address"
        },
        {
          "indexed": true,
          "internalType": "address",
          "name": "to",
          "type": "address"
        },
        {
          "indexed": true,
          "internalType": "uint256",
          "name": "tokenId",
          "type": "uint256"
        }
      ],
      "name": "Transfer",
      "type": "event"
    },
    {
      "inputs": [
        {
          "internalType": "address",
          "name": "to",
          "type": "address"
        },
        {
          "internalType": "uint256",
          "name": "tokenId",
          "type": "uint256"
        }
      ],
      "name": "approve",
      "outputs": [],
      "stateMutability": "nonpayable",
      "type": "function"
    },
    {
      "inputs": [
        {
          "internalType": "address",
          "name": "owner",
          "type": "address"
        }
      ],
      "name": "balanceOf",
      "outputs": [
        {
          "internalType": "uint256",
          "name": "",
          "type": "uint256"
        }
      ],
      "stateMutability": "view",
      "type": "function"
    },
    {
      "inputs": [
        {
          "internalType": "uint256",
          "name": "tokenId",
          "type": "uint256"
        }
      ],
      "name": "getApproved",
      "outputs": [
        {
          "internalType": "address",
          "name": "",
          "type": "address"
        }
      ],
      "stateMutability": "view",
      "type": "function"
    },
    {
      "inputs": [
        {
          "internalType": "uint256",
          "name": "moddenRng",
          "type": "uint256"
        }
      ],
      "name": "getBreedFromModdenRng",
      "outputs": [
        {
          "internalType": "enum RandomIpfsNft.Breed",
          "name": "",
          "type": "uint8"
        }
      ],
      "stateMutability": "pure",
      "type": "function"
    },
    {
      "inputs": [],
      "name": "getChanceArray",
      "outputs": [
        {
          "internalType": "uint256[3]",
          "name": "",
          "type": "uint256[3]"
        }
      ],
      "stateMutability": "pure",
      "type": "function"
    },
    {
      "inputs": [
        {
          "internalType": "uint256",
          "name": "index",
          "type": "uint256"
        }
      ],
      "name": "getDogUris",
      "outputs": [
        {
          "internalType": "string",
          "name": "",
          "type": "string"
        }
      ],
      "stateMutability": "view",
      "type": "function"
    },
    {
      "inputs": [],
      "name": "getMintFee",
      "outputs": [
        {
          "internalType": "uint256",
          "name": "",
          "type": "uint256"
        }
      ],
      "stateMutability": "view",
      "type": "function"
    },
    {
      "inputs": [],
      "name": "getTokenCounter",
      "outputs": [
        {
          "internalType": "uint256",
          "name": "",
          "type": "uint256"
        }
      ],
      "stateMutability": "view",
      "type": "function"
    },
    {
      "inputs": [
        {
          "internalType": "address",
          "name": "owner",
          "type": "address"
        },
        {
          "internalType": "address",
          "name": "operator",
          "type": "address"
        }
      ],
      "name": "isApprovedForAll",
      "outputs": [
        {
          "internalType": "bool",
          "name": "",
          "type": "bool"
        }
      ],
      "stateMutability": "view",
      "type": "function"
    },
    {
      "inputs": [],
      "name": "name",
      "outputs": [
        {
          "internalType": "string",
          "name": "",
          "type": "string"
        }
      ],
      "stateMutability": "view",
      "type": "function"
    },
    {
      "inputs": [],
      "name": "owner",
      "outputs": [
        {
          "internalType": "address",
          "name": "",
          "type": "address"
        }
      ],
      "stateMutability": "view",
      "type": "function"
    },
    {
      "inputs": [
        {
          "internalType": "uint256",
          "name": "tokenId",
          "type": "uint256"
        }
      ],
      "name": "ownerOf",
      "outputs": [
        {
          "internalType": "address",
          "name": "",
          "type": "address"
        }
      ],
      "stateMutability": "view",
      "type": "function"
    },
    {
      "inputs": [
        {
          "internalType": "uint256",
          "name": "requestId",
          "type": "uint256"
        },
        {
          "internalType": "uint256[]",
          "name": "randomWords",
          "type": "uint256[]"
        }
      ],
      "name": "rawFulfillRandomWords",
      "outputs": [],
      "stateMutability": "nonpayable",
      "type": "function"
    },
    {
      "inputs": [],
      "name": "renounceOwnership",
      "outputs": [],
      "stateMutability": "nonpayable",
      "type": "function"
    },
    {
      "inputs": [],
      "name": "requestNft",
      "outputs": [
        {
          "internalType": "uint256",
          "name": "requestId",
          "type": "uint256"
        }
      ],
      "stateMutability": "payable",
      "type": "function"
    },
    {
      "inputs": [
        {
          "internalType": "uint256",
          "name": "",
          "type": "uint256"
        }
      ],
      "name": "s_requestIdToSender",
      "outputs": [
        {
          "internalType": "address",
          "name": "",
          "type": "address"
        }
      ],
      "stateMutability": "view",
      "type": "function"
    },
    {
      "inputs": [],
      "name": "s_tokenCounter",
      "outputs": [
        {
          "internalType": "uint256",
          "name": "",
          "type": "uint256"
        }
      ],
      "stateMutability": "view",
      "type": "function"
    },
    {
      "inputs": [
        {
          "internalType": "address",
          "name": "from",
          "type": "address"
        },
        {
          "internalType": "address",
          "name": "to",
          "type": "address"
        },
        {
          "internalType": "uint256",
          "name": "tokenId",
          "type": "uint256"
        }
      ],
      "name": "safeTransferFrom",
      "outputs": [],
      "stateMutability": "nonpayable",
      "type": "function"
    },
    {
      "inputs": [
        {
          "internalType": "address",
          "name": "from",
          "type": "address"
        },
        {
          "internalType": "address",
          "name": "to",
          "type": "address"
        },
        {
          "internalType": "uint256",
          "name": "tokenId",
          "type": "uint256"
        },
        {
          "internalType": "bytes",
          "name": "data",
          "type": "bytes"
        }
      ],
      "name": "safeTransferFrom",
      "outputs": [],
      "stateMutability": "nonpayable",
      "type": "function"
    },
    {
      "inputs": [
        {
          "internalType": "address",
          "name": "operator",
          "type": "address"
        },
        {
          "internalType": "bool",
          "name": "approved",
          "type": "bool"
        }
      ],
      "name": "setApprovalForAll",
      "outputs": [],
      "stateMutability": "nonpayable",
      "type": "function"
    },
    {
      "inputs": [
        {
          "internalType": "bytes4",
          "name": "interfaceId",
          "type": "bytes4"
        }
      ],
      "name": "supportsInterface",
      "outputs": [
        {
          "internalType": "bool",
          "name": "",
          "type": "bool"
        }
      ],
      "stateMutability": "view",
      "type": "function"
    },
    {
      "inputs": [],
      "name": "symbol",
      "outputs": [
        {
          "internalType": "string",
          "name": "",
          "type": "string"
        }
      ],
      "stateMutability": "view",
      "type": "function"
    },
    {
      "inputs": [
        {
          "internalType": "uint256",
          "name": "tokenId",
          "type": "uint256"
        }
      ],
      "name": "tokenURI",
      "outputs": [
        {
          "internalType": "string",
          "name": "",
          "type": "string"
        }
      ],
      "stateMutability": "view",
      "type": "function"
    },
    {
      "inputs": [
        {
          "internalType": "address",
          "name": "from",
          "type": "address"
        },
        {
          "internalType": "address",
          "name": "to",
          "type": "address"
        },
        {
          "internalType": "uint256",
          "name": "tokenId",
          "type": "uint256"
        }
      ],
      "name": "transferFrom",
      "outputs": [],
      "stateMutability": "nonpayable",
      "type": "function"
    },
    {
      "inputs": [
        {
          "internalType": "address",
          "name": "newOwner",
          "type": "address"
        }
      ],
      "name": "transferOwnership",
      "outputs": [],
      "stateMutability": "nonpayable",
      "type": "function"
    },
    {
      "inputs": [],
      "name": "withdraw",
      "outputs": [],
      "stateMutability": "nonpayable",
      "type": "function"
    }
  ],
  "bytecode": "0x6101406040523480156200001257600080fd5b50604051620043233803806200432383398181016040528101906200003891906200080b565b6040518060400160405280600f81526020017f52616e646f6d2049706673204e465400000000000000000000000000000000008152506040518060400160405280600381526020017f52494e0000000000000000000000000000000000000000000000000000000000815250878073ffffffffffffffffffffffffffffffffffffffff1660808173ffffffffffffffffffffffffffffffffffffffff1660601b81525050508160009080519060200190620000f59291906200029e565b5080600190805190602001906200010e9291906200029e565b5050506200013162000125620001d060201b60201c565b620001d860201b60201c565b8573ffffffffffffffffffffffffffffffffffffffff1660a08173ffffffffffffffffffffffffffffffffffffffff1660601b815250508467ffffffffffffffff1660c08167ffffffffffffffff1660c01b815250508360e081815250508263ffffffff166101008163ffffffff1660e01b8152505081600a906003620001ba9291906200032f565b508061012081815250505050505050506200092b565b600033905090565b6000600760009054906101000a900473ffffffffffffffffffffffffffffffffffffffff16905081600760006101000a81548173ffffffffffffffffffffffffffffffffffffffff021916908373ffffffffffffffffffffffffffffffffffffffff1602179055508173ffffffffffffffffffffffffffffffffffffffff168173ffffffffffffffffffffffffffffffffffffffff167f8be0079c531659141344cd1fd0a4f28419497f9722a3daafe3b4186f6b6457e060405160405180910390a35050565b828054620002ac90620008f5565b90600052602060002090601f016020900481019282620002d057600085556200031c565b82601f10620002eb57805160ff19168380011785556200031c565b828001600101855582156200031c579182015b828111156200031b578251825591602001919060010190620002fe565b5b5090506200032b919062000396565b5090565b82805482825590600052602060002090810192821562000383579160200282015b8281111562000382578251829080519060200190620003719291906200029e565b509160200191906001019062000350565b5b509050620003929190620003b5565b5090565b5b80821115620003b157600081600090555060010162000397565b5090565b5b80821115620003d95760008181620003cf9190620003dd565b50600101620003b6565b5090565b508054620003eb90620008f5565b6000825580601f10620003ff575062000420565b601f0160209004906000526020600020908101906200041f919062000396565b5b50565b6000604051905090565b600080fd5b600080fd5b600073ffffffffffffffffffffffffffffffffffffffff82169050919050565b6000620004648262000437565b9050919050565b620004768162000457565b81146200048257600080fd5b50565b60008151905062000496816200046b565b92915050565b600067ffffffffffffffff82169050919050565b620004bb816200049c565b8114620004c757600080fd5b50565b600081519050620004db81620004b0565b92915050565b6000819050919050565b620004f681620004e1565b81146200050257600080fd5b50565b6000815190506200051681620004eb565b92915050565b600063ffffffff82169050919050565b62000537816200051c565b81146200054357600080fd5b50565b60008151905062000557816200052c565b92915050565b600080fd5b6000601f19601f8301169050919050565b7f4e487b7100000000000000000000000000000000000000000000000000000000600052604160045260246000fd5b620005ad8262000562565b810181811067ffffffffffffffff82111715620005cf57620005ce62000573565b5b80604052505050565b6000620005e462000423565b9050620005f28282620005a2565b919050565b600067ffffffffffffffff82111562000615576200061462000573565b5b602082029050919050565b600080fd5b600080fd5b600067ffffffffffffffff82111562000648576200064762000573565b5b620006538262000562565b9050602081019050919050565b60005b838110156200068057808201518184015260208101905062000663565b8381111562000690576000848401525b50505050565b6000620006ad620006a7846200062a565b620005d8565b905082815260208101848484011115620006cc57620006cb62000625565b5b620006d984828562000660565b509392505050565b600082601f830112620006f957620006f86200055d565b5b81516200070b84826020860162000696565b91505092915050565b60006200072b6200072584620005f7565b620005d8565b9050806020840283018581111562000748576200074762000620565b5b835b818110156200079657805167ffffffffffffffff8111156200077157620007706200055d565b5b808601620007808982620006e1565b855260208501945050506020810190506200074a565b5050509392505050565b600082601f830112620007b857620007b76200055d565b5b6003620007c784828562000714565b91505092915050565b6000819050919050565b620007e581620007d0565b8114620007f157600080fd5b50565b6000815190506200080581620007da565b92915050565b60008060008060008060c087890312156200082b576200082a6200042d565b5b60006200083b89828a0162000485565b96505060206200084e89828a01620004ca565b95505060406200086189828a0162000505565b94505060606200087489828a0162000546565b935050608087015167ffffffffffffffff81111562000898576200089762000432565b5b620008a689828a01620007a0565b92505060a0620008b989828a01620007f4565b9150509295509295509295565b7f4e487b7100000000000000000000000000000000000000000000000000000000600052602260045260246000fd5b600060028204905060018216806200090e57607f821691505b60208210811415620009255762000924620008c6565b5b50919050565b60805160601c60a05160601c60c05160c01c60e0516101005160e01c6101205161398e6200099560003960008181610d760152610ea301526000610f7d01526000610f3901526000610f5a01526000610efd01526000818161091d0152610971015261398e6000f3fe6080604052600436106101815760003560e01c806370a08231116100d1578063a36f573b1161008a578063c87b56dd11610064578063c87b56dd14610563578063e2f5c4ad146105a0578063e985e9c5146105dd578063f2fde38b1461061a57610181565b8063a36f573b146104df578063aa1524911461051c578063b88d4fde1461053a57610181565b806370a08231146103e1578063715018a61461041e5780637a5caab3146104355780638da5cb5b1461046057806395d89b411461048b578063a22cb465146104b657610181565b806323b872dd1161013e5780635c286742116101185780635c286742146103115780635dacf5f41461034e5780636352211e146103795780636e02007d146103b657610181565b806323b872dd146102a85780633ccfd60b146102d157806342842e0e146102e857610181565b806301ffc9a71461018657806306fdde03146101c3578063081812fc146101ee578063095ea7b31461022b5780630b21a83b146102545780631fe543e31461027f575b600080fd5b34801561019257600080fd5b506101ad60048036038101906101a8919061253c565b610643565b6040516101ba9190612584565b60405180910390f35b3480156101cf57600080fd5b506101d8610725565b6040516101e59190612638565b60405180910390f35b3480156101fa57600080fd5b5061021560048036038101906102109190612690565b6107b7565b60405161022291906126fe565b60405180910390f35b34801561023757600080fd5b50610252600480360381019061024d9190612745565b6107fd565b005b34801561026057600080fd5b50610269610915565b6040516102769190612794565b60405180910390f35b34801561028b57600080fd5b506102a660048036038101906102a191906128f7565b61091b565b005b3480156102b457600080fd5b506102cf60048036038101906102ca9190612953565b6109db565b005b3480156102dd57600080fd5b506102e6610a3b565b005b3480156102f457600080fd5b5061030f600480360381019061030a9190612953565b610aef565b005b34801561031d57600080fd5b5061033860048036038101906103339190612690565b610b0f565b6040516103459190612638565b60405180910390f35b34801561035a57600080fd5b50610363610bbf565b6040516103709190612a51565b60405180910390f35b34801561038557600080fd5b506103a0600480360381019061039b9190612690565b610bea565b6040516103ad91906126fe565b60405180910390f35b3480156103c257600080fd5b506103cb610c9c565b6040516103d89190612794565b60405180910390f35b3480156103ed57600080fd5b5061040860048036038101906104039190612a6c565b610ca6565b6040516104159190612794565b60405180910390f35b34801561042a57600080fd5b50610433610d5e565b005b34801561044157600080fd5b5061044a610d72565b6040516104579190612794565b60405180910390f35b34801561046c57600080fd5b50610475610d9a565b60405161048291906126fe565b60405180910390f35b34801561049757600080fd5b506104a0610dc4565b6040516104ad9190612638565b60405180910390f35b3480156104c257600080fd5b506104dd60048036038101906104d89190612ac5565b610e56565b005b3480156104eb57600080fd5b5061050660048036038101906105019190612690565b610e6c565b60405161051391906126fe565b60405180910390f35b610524610e9f565b6040516105319190612794565b60405180910390f35b34801561054657600080fd5b50610561600480360381019061055c9190612bba565b61109f565b005b34801561056f57600080fd5b5061058a60048036038101906105859190612690565b611101565b6040516105979190612638565b60405180910390f35b3480156105ac57600080fd5b506105c760048036038101906105c29190612690565b611214565b6040516105d49190612cb4565b60405180910390f35b3480156105e957600080fd5b5061060460048036038101906105ff9190612ccf565b6112f6565b6040516106119190612584565b60405180910390f35b34801561062657600080fd5b50610641600480360381019061063c9190612a6c565b61138a565b005b60007f80ac58cd000000000000000000000000000000000000000000000000000000007bffffffffffffffffffffffffffffffffffffffffffffffffffffffff1916827bffffffffffffffffffffffffffffffffffffffffffffffffffffffff1916148061070e57507f5b5e139f000000000000000000000000000000000000000000000000000000007bffffffffffffffffffffffffffffffffffffffffffffffffffffffff1916827bffffffffffffffffffffffffffffffffffffffffffffffffffffffff1916145b8061071e575061071d8261140e565b5b9050919050565b60606000805461073490612d3e565b80601f016020809104026020016040519081016040528092919081815260200182805461076090612d3e565b80156107ad5780601f10610782576101008083540402835291602001916107ad565b820191906000526020600020905b81548152906001019060200180831161079057829003601f168201915b5050505050905090565b60006107c282611478565b6004600083815260200190815260200160002060009054906101000a900473ffffffffffffffffffffffffffffffffffffffff169050919050565b600061080882610bea565b90508073ffffffffffffffffffffffffffffffffffffffff168373ffffffffffffffffffffffffffffffffffffffff161415610879576040517f08c379a000000000000000000000000000000000000000000000000000000000815260040161087090612de2565b60405180910390fd5b8073ffffffffffffffffffffffffffffffffffffffff166108986114c3565b73ffffffffffffffffffffffffffffffffffffffff1614806108c757506108c6816108c16114c3565b6112f6565b5b610906576040517f08c379a00000000000000000000000000000000000000000000000000000000081526004016108fd90612e74565b60405180910390fd5b61091083836114cb565b505050565b60095481565b7f000000000000000000000000000000000000000000000000000000000000000073ffffffffffffffffffffffffffffffffffffffff163373ffffffffffffffffffffffffffffffffffffffff16146109cd57337f00000000000000000000000000000000000000000000000000000000000000006040517f1cf993f40000000000000000000000000000000000000000000000000000000081526004016109c4929190612e94565b60405180910390fd5b6109d78282611584565b5050565b6109ec6109e66114c3565b8261172b565b610a2b576040517f08c379a0000000000000000000000000000000000000000000000000000000008152600401610a2290612f2f565b60405180910390fd5b610a368383836117c0565b505050565b610a43611a27565b600047905060003373ffffffffffffffffffffffffffffffffffffffff1682604051610a6e90612f80565b60006040518083038185875af1925050503d8060008114610aab576040519150601f19603f3d011682016040523d82523d6000602084013e610ab0565b606091505b5050905080610aeb576040517f90b8ec1800000000000000000000000000000000000000000000000000000000815260040160405180910390fd5b5050565b610b0a8383836040518060200160405280600081525061109f565b505050565b6060600a8281548110610b2557610b24612f95565b5b906000526020600020018054610b3a90612d3e565b80601f0160208091040260200160405190810160405280929190818152602001828054610b6690612d3e565b8015610bb35780601f10610b8857610100808354040283529160200191610bb3565b820191906000526020600020905b815481529060010190602001808311610b9657829003601f168201915b50505050509050919050565b610bc761240b565b6040518060600160405280600a8152602001601e81526020016064815250905090565b6000806002600084815260200190815260200160002060009054906101000a900473ffffffffffffffffffffffffffffffffffffffff169050600073ffffffffffffffffffffffffffffffffffffffff168173ffffffffffffffffffffffffffffffffffffffff161415610c93576040517f08c379a0000000000000000000000000000000000000000000000000000000008152600401610c8a90613010565b60405180910390fd5b80915050919050565b6000600954905090565b60008073ffffffffffffffffffffffffffffffffffffffff168273ffffffffffffffffffffffffffffffffffffffff161415610d17576040517f08c379a0000000000000000000000000000000000000000000000000000000008152600401610d0e906130a2565b60405180910390fd5b600360008373ffffffffffffffffffffffffffffffffffffffff1673ffffffffffffffffffffffffffffffffffffffff168152602001908152602001600020549050919050565b610d66611a27565b610d706000611aa5565b565b60007f0000000000000000000000000000000000000000000000000000000000000000905090565b6000600760009054906101000a900473ffffffffffffffffffffffffffffffffffffffff16905090565b606060018054610dd390612d3e565b80601f0160208091040260200160405190810160405280929190818152602001828054610dff90612d3e565b8015610e4c5780601f10610e2157610100808354040283529160200191610e4c565b820191906000526020600020905b815481529060010190602001808311610e2f57829003601f168201915b5050505050905090565b610e68610e616114c3565b8383611b6b565b5050565b60086020528060005260406000206000915054906101000a900473ffffffffffffffffffffffffffffffffffffffff1681565b60007f0000000000000000000000000000000000000000000000000000000000000000341015610efb576040517f191ecc6a00000000000000000000000000000000000000000000000000000000815260040160405180910390fd5b7f000000000000000000000000000000000000000000000000000000000000000073ffffffffffffffffffffffffffffffffffffffff16635d3b1d307f00000000000000000000000000000000000000000000000000000000000000007f000000000000000000000000000000000000000000000000000000000000000060037f000000000000000000000000000000000000000000000000000000000000000060016040518663ffffffff1660e01b8152600401610fbe95949392919061313a565b602060405180830381600087803b158015610fd857600080fd5b505af1158015610fec573d6000803e3d6000fd5b505050506040513d601f19601f8201168201806040525081019061101091906131a2565b9050336008600083815260200190815260200160002060006101000a81548173ffffffffffffffffffffffffffffffffffffffff021916908373ffffffffffffffffffffffffffffffffffffffff160217905550807ff873236e6cc0ecc5be1a9a35c95ee5b8d1ac4cc7bfef0cc5060391d6cc98e26b3360405161109491906126fe565b60405180910390a290565b6110b06110aa6114c3565b8361172b565b6110ef576040517f08c379a00000000000000000000000000000000000000000000000000000000081526004016110e690612f2f565b60405180910390fd5b6110fb84848484611cd8565b50505050565b606061110c82611478565b600060066000848152602001908152602001600020805461112c90612d3e565b80601f016020809104026020016040519081016040528092919081815260200182805461115890612d3e565b80156111a55780601f1061117a576101008083540402835291602001916111a5565b820191906000526020600020905b81548152906001019060200180831161118857829003601f168201915b5050505050905060006111b6611d34565b90506000815114156111cc57819250505061120f565b6000825111156112015780826040516020016111e992919061320b565b6040516020818303038152906040529250505061120f565b61120a84611d4b565b925050505b919050565b600080600090506000611225610bbf565b905060005b60038110156112be57828510158015611264575081816003811061125157611250612f95565b5b602002015183611261919061325e565b85105b156112865780600281111561127c5761127b612c3d565b5b93505050506112f1565b81816003811061129957611298612f95565b5b6020020151836112a9919061325e565b925080806112b6906132b4565b91505061122a565b506040517f12806c9d00000000000000000000000000000000000000000000000000000000815260040160405180910390fd5b919050565b6000600560008473ffffffffffffffffffffffffffffffffffffffff1673ffffffffffffffffffffffffffffffffffffffff16815260200190815260200160002060008373ffffffffffffffffffffffffffffffffffffffff1673ffffffffffffffffffffffffffffffffffffffff16815260200190815260200160002060009054906101000a900460ff16905092915050565b611392611a27565b600073ffffffffffffffffffffffffffffffffffffffff168173ffffffffffffffffffffffffffffffffffffffff161415611402576040517f08c379a00000000000000000000000000000000000000000000000000000000081526004016113f99061336f565b60405180910390fd5b61140b81611aa5565b50565b60007f01ffc9a7000000000000000000000000000000000000000000000000000000007bffffffffffffffffffffffffffffffffffffffffffffffffffffffff1916827bffffffffffffffffffffffffffffffffffffffffffffffffffffffff1916149050919050565b61148181611db3565b6114c0576040517f08c379a00000000000000000000000000000000000000000000000000000000081526004016114b790613010565b60405180910390fd5b50565b600033905090565b816004600083815260200190815260200160002060006101000a81548173ffffffffffffffffffffffffffffffffffffffff021916908373ffffffffffffffffffffffffffffffffffffffff160217905550808273ffffffffffffffffffffffffffffffffffffffff1661153e83610bea565b73ffffffffffffffffffffffffffffffffffffffff167f8c5be1e5ebec7d5bd14f71427d1e84f3dd0314c0f7b2291e5b200ac8c7c3b92560405160405180910390a45050565b60006008600084815260200190815260200160002060009054906101000a900473ffffffffffffffffffffffffffffffffffffffff169050600060095490506115cd8282611e1f565b60006064846000815181106115e5576115e4612f95565b5b60200260200101516115f791906133be565b9050600061160482611214565b905060096000815480929190611619906132b4565b91905055506116288484611e1f565b6116ea83600a83600281111561164157611640612c3d565b5b8154811061165257611651612f95565b5b90600052602060002001805461166790612d3e565b80601f016020809104026020016040519081016040528092919081815260200182805461169390612d3e565b80156116e05780601f106116b5576101008083540402835291602001916116e0565b820191906000526020600020905b8154815290600101906020018083116116c357829003601f168201915b5050505050611e3d565b7f8a269f26b688e110e9cbd887d163dab35cae678fa353a0292de532c0cac1ecdc818560405161171b9291906133ef565b60405180910390a1505050505050565b60008061173783610bea565b90508073ffffffffffffffffffffffffffffffffffffffff168473ffffffffffffffffffffffffffffffffffffffff161480611779575061177881856112f6565b5b806117b757508373ffffffffffffffffffffffffffffffffffffffff1661179f846107b7565b73ffffffffffffffffffffffffffffffffffffffff16145b91505092915050565b8273ffffffffffffffffffffffffffffffffffffffff166117e082610bea565b73ffffffffffffffffffffffffffffffffffffffff1614611836576040517f08c379a000000000000000000000000000000000000000000000000000000000815260040161182d9061348a565b60405180910390fd5b600073ffffffffffffffffffffffffffffffffffffffff168273ffffffffffffffffffffffffffffffffffffffff1614156118a6576040517f08c379a000000000000000000000000000000000000000000000000000000000815260040161189d9061351c565b60405180910390fd5b6118b1838383611eb1565b6118bc6000826114cb565b6001600360008573ffffffffffffffffffffffffffffffffffffffff1673ffffffffffffffffffffffffffffffffffffffff168152602001908152602001600020600082825461190c919061353c565b925050819055506001600360008473ffffffffffffffffffffffffffffffffffffffff1673ffffffffffffffffffffffffffffffffffffffff1681526020019081526020016000206000828254611963919061325e565b92505081905550816002600083815260200190815260200160002060006101000a81548173ffffffffffffffffffffffffffffffffffffffff021916908373ffffffffffffffffffffffffffffffffffffffff160217905550808273ffffffffffffffffffffffffffffffffffffffff168473ffffffffffffffffffffffffffffffffffffffff167fddf252ad1be2c89b69c2b068fc378daa952ba7f163c4a11628f55a4df523b3ef60405160405180910390a4611a22838383611eb6565b505050565b611a2f6114c3565b73ffffffffffffffffffffffffffffffffffffffff16611a4d610d9a565b73ffffffffffffffffffffffffffffffffffffffff1614611aa3576040517f08c379a0000000000000000000000000000000000000000000000000000000008152600401611a9a906135bc565b60405180910390fd5b565b6000600760009054906101000a900473ffffffffffffffffffffffffffffffffffffffff16905081600760006101000a81548173ffffffffffffffffffffffffffffffffffffffff021916908373ffffffffffffffffffffffffffffffffffffffff1602179055508173ffffffffffffffffffffffffffffffffffffffff168173ffffffffffffffffffffffffffffffffffffffff167f8be0079c531659141344cd1fd0a4f28419497f9722a3daafe3b4186f6b6457e060405160405180910390a35050565b8173ffffffffffffffffffffffffffffffffffffffff168373ffffffffffffffffffffffffffffffffffffffff161415611bda576040517f08c379a0000000000000000000000000000000000000000000000000000000008152600401611bd190613628565b60405180910390fd5b80600560008573ffffffffffffffffffffffffffffffffffffffff1673ffffffffffffffffffffffffffffffffffffffff16815260200190815260200160002060008473ffffffffffffffffffffffffffffffffffffffff1673ffffffffffffffffffffffffffffffffffffffff16815260200190815260200160002060006101000a81548160ff0219169083151502179055508173ffffffffffffffffffffffffffffffffffffffff168373ffffffffffffffffffffffffffffffffffffffff167f17307eab39ab6107e8899845ad3d59bd9653f200f220920489ca2b5937696c3183604051611ccb9190612584565b60405180910390a3505050565b611ce38484846117c0565b611cef84848484611ebb565b611d2e576040517f08c379a0000000000000000000000000000000000000000000000000000000008152600401611d25906136ba565b60405180910390fd5b50505050565b606060405180602001604052806000815250905090565b6060611d5682611478565b6000611d60611d34565b90506000815111611d805760405180602001604052806000815250611dab565b80611d8a84612052565b604051602001611d9b92919061320b565b6040516020818303038152906040525b915050919050565b60008073ffffffffffffffffffffffffffffffffffffffff166002600084815260200190815260200160002060009054906101000a900473ffffffffffffffffffffffffffffffffffffffff1673ffffffffffffffffffffffffffffffffffffffff1614159050919050565b611e398282604051806020016040528060008152506121b3565b5050565b611e4682611db3565b611e85576040517f08c379a0000000000000000000000000000000000000000000000000000000008152600401611e7c9061374c565b60405180910390fd5b80600660008481526020019081526020016000209080519060200190611eac92919061242d565b505050565b505050565b505050565b6000611edc8473ffffffffffffffffffffffffffffffffffffffff1661220e565b15612045578373ffffffffffffffffffffffffffffffffffffffff1663150b7a02611f056114c3565b8786866040518563ffffffff1660e01b8152600401611f2794939291906137c1565b602060405180830381600087803b158015611f4157600080fd5b505af1925050508015611f7257506040513d601f19601f82011682018060405250810190611f6f9190613822565b60015b611ff5573d8060008114611fa2576040519150601f19603f3d011682016040523d82523d6000602084013e611fa7565b606091505b50600081511415611fed576040517f08c379a0000000000000000000000000000000000000000000000000000000008152600401611fe4906136ba565b60405180910390fd5b805181602001fd5b63150b7a0260e01b7bffffffffffffffffffffffffffffffffffffffffffffffffffffffff1916817bffffffffffffffffffffffffffffffffffffffffffffffffffffffff19161491505061204a565b600190505b949350505050565b6060600082141561209a576040518060400160405280600181526020017f300000000000000000000000000000000000000000000000000000000000000081525090506121ae565b600082905060005b600082146120cc5780806120b5906132b4565b915050600a826120c5919061384f565b91506120a2565b60008167ffffffffffffffff8111156120e8576120e76127b4565b5b6040519080825280601f01601f19166020018201604052801561211a5781602001600182028036833780820191505090505b5090505b600085146121a757600182612133919061353c565b9150600a8561214291906133be565b603061214e919061325e565b60f81b81838151811061216457612163612f95565b5b60200101907effffffffffffffffffffffffffffffffffffffffffffffffffffffffffffff1916908160001a905350600a856121a0919061384f565b945061211e565b8093505050505b919050565b6121bd8383612231565b6121ca6000848484611ebb565b612209576040517f08c379a0000000000000000000000000000000000000000000000000000000008152600401612200906136ba565b60405180910390fd5b505050565b6000808273ffffffffffffffffffffffffffffffffffffffff163b119050919050565b600073ffffffffffffffffffffffffffffffffffffffff168273ffffffffffffffffffffffffffffffffffffffff1614156122a1576040517f08c379a0000000000000000000000000000000000000000000000000000000008152600401612298906138cc565b60405180910390fd5b6122aa81611db3565b156122ea576040517f08c379a00000000000000000000000000000000000000000000000000000000081526004016122e190613938565b60405180910390fd5b6122f660008383611eb1565b6001600360008473ffffffffffffffffffffffffffffffffffffffff1673ffffffffffffffffffffffffffffffffffffffff1681526020019081526020016000206000828254612346919061325e565b92505081905550816002600083815260200190815260200160002060006101000a81548173ffffffffffffffffffffffffffffffffffffffff021916908373ffffffffffffffffffffffffffffffffffffffff160217905550808273ffffffffffffffffffffffffffffffffffffffff16600073ffffffffffffffffffffffffffffffffffffffff167fddf252ad1be2c89b69c2b068fc378daa952ba7f163c4a11628f55a4df523b3ef60405160405180910390a461240760008383611eb6565b5050565b6040518060600160405280600390602082028036833780820191505090505090565b82805461243990612d3e565b90600052602060002090601f01602090048101928261245b57600085556124a2565b82601f1061247457805160ff19168380011785556124a2565b828001600101855582156124a2579182015b828111156124a1578251825591602001919060010190612486565b5b5090506124af91906124b3565b5090565b5b808211156124cc5760008160009055506001016124b4565b5090565b6000604051905090565b600080fd5b600080fd5b60007fffffffff0000000000000000000000000000000000000000000000000000000082169050919050565b612519816124e4565b811461252457600080fd5b50565b60008135905061253681612510565b92915050565b600060208284031215612552576125516124da565b5b600061256084828501612527565b91505092915050565b60008115159050919050565b61257e81612569565b82525050565b60006020820190506125996000830184612575565b92915050565b600081519050919050565b600082825260208201905092915050565b60005b838110156125d95780820151818401526020810190506125be565b838111156125e8576000848401525b50505050565b6000601f19601f8301169050919050565b600061260a8261259f565b61261481856125aa565b93506126248185602086016125bb565b61262d816125ee565b840191505092915050565b6000602082019050818103600083015261265281846125ff565b905092915050565b6000819050919050565b61266d8161265a565b811461267857600080fd5b50565b60008135905061268a81612664565b92915050565b6000602082840312156126a6576126a56124da565b5b60006126b48482850161267b565b91505092915050565b600073ffffffffffffffffffffffffffffffffffffffff82169050919050565b60006126e8826126bd565b9050919050565b6126f8816126dd565b82525050565b600060208201905061271360008301846126ef565b92915050565b612722816126dd565b811461272d57600080fd5b50565b60008135905061273f81612719565b92915050565b6000806040838503121561275c5761275b6124da565b5b600061276a85828601612730565b925050602061277b8582860161267b565b9150509250929050565b61278e8161265a565b82525050565b60006020820190506127a96000830184612785565b92915050565b600080fd5b7f4e487b7100000000000000000000000000000000000000000000000000000000600052604160045260246000fd5b6127ec826125ee565b810181811067ffffffffffffffff8211171561280b5761280a6127b4565b5b80604052505050565b600061281e6124d0565b905061282a82826127e3565b919050565b600067ffffffffffffffff82111561284a576128496127b4565b5b602082029050602081019050919050565b600080fd5b600061287361286e8461282f565b612814565b905080838252602082019050602084028301858111156128965761289561285b565b5b835b818110156128bf57806128ab888261267b565b845260208401935050602081019050612898565b5050509392505050565b600082601f8301126128de576128dd6127af565b5b81356128ee848260208601612860565b91505092915050565b6000806040838503121561290e5761290d6124da565b5b600061291c8582860161267b565b925050602083013567ffffffffffffffff81111561293d5761293c6124df565b5b612949858286016128c9565b9150509250929050565b60008060006060848603121561296c5761296b6124da565b5b600061297a86828701612730565b935050602061298b86828701612730565b925050604061299c8682870161267b565b9150509250925092565b600060039050919050565b600081905092915050565b6000819050919050565b6129cf8161265a565b82525050565b60006129e183836129c6565b60208301905092915050565b6000602082019050919050565b612a03816129a6565b612a0d81846129b1565b9250612a18826129bc565b8060005b83811015612a49578151612a3087826129d5565b9650612a3b836129ed565b925050600181019050612a1c565b505050505050565b6000606082019050612a6660008301846129fa565b92915050565b600060208284031215612a8257612a816124da565b5b6000612a9084828501612730565b91505092915050565b612aa281612569565b8114612aad57600080fd5b50565b600081359050612abf81612a99565b92915050565b60008060408385031215612adc57612adb6124da565b5b6000612aea85828601612730565b9250506020612afb85828601612ab0565b9150509250929050565b600080fd5b600067ffffffffffffffff821115612b2557612b246127b4565b5b612b2e826125ee565b9050602081019050919050565b82818337600083830152505050565b6000612b5d612b5884612b0a565b612814565b905082815260208101848484011115612b7957612b78612b05565b5b612b84848285612b3b565b509392505050565b600082601f830112612ba157612ba06127af565b5b8135612bb1848260208601612b4a565b91505092915050565b60008060008060808587031215612bd457612bd36124da565b5b6000612be287828801612730565b9450506020612bf387828801612730565b9350506040612c048782880161267b565b925050606085013567ffffffffffffffff811115612c2557612c246124df565b5b612c3187828801612b8c565b91505092959194509250565b7f4e487b7100000000000000000000000000000000000000000000000000000000600052602160045260246000fd5b60038110612c7d57612c7c612c3d565b5b50565b6000819050612c8e82612c6c565b919050565b6000612c9e82612c80565b9050919050565b612cae81612c93565b82525050565b6000602082019050612cc96000830184612ca5565b92915050565b60008060408385031215612ce657612ce56124da565b5b6000612cf485828601612730565b9250506020612d0585828601612730565b9150509250929050565b7f4e487b7100000000000000000000000000000000000000000000000000000000600052602260045260246000fd5b60006002820490506001821680612d5657607f821691505b60208210811415612d6a57612d69612d0f565b5b50919050565b7f4552433732313a20617070726f76616c20746f2063757272656e74206f776e6560008201527f7200000000000000000000000000000000000000000000000000000000000000602082015250565b6000612dcc6021836125aa565b9150612dd782612d70565b604082019050919050565b60006020820190508181036000830152612dfb81612dbf565b9050919050565b7f4552433732313a20617070726f76652063616c6c6572206973206e6f7420746f60008201527f6b656e206f776e6572206e6f7220617070726f76656420666f7220616c6c0000602082015250565b6000612e5e603e836125aa565b9150612e6982612e02565b604082019050919050565b60006020820190508181036000830152612e8d81612e51565b9050919050565b6000604082019050612ea960008301856126ef565b612eb660208301846126ef565b9392505050565b7f4552433732313a2063616c6c6572206973206e6f7420746f6b656e206f776e6560008201527f72206e6f7220617070726f766564000000000000000000000000000000000000602082015250565b6000612f19602e836125aa565b9150612f2482612ebd565b604082019050919050565b60006020820190508181036000830152612f4881612f0c565b9050919050565b600081905092915050565b50565b6000612f6a600083612f4f565b9150612f7582612f5a565b600082019050919050565b6000612f8b82612f5d565b9150819050919050565b7f4e487b7100000000000000000000000000000000000000000000000000000000600052603260045260246000fd5b7f4552433732313a20696e76616c696420746f6b656e2049440000000000000000600082015250565b6000612ffa6018836125aa565b915061300582612fc4565b602082019050919050565b6000602082019050818103600083015261302981612fed565b9050919050565b7f4552433732313a2061646472657373207a65726f206973206e6f74206120766160008201527f6c6964206f776e65720000000000000000000000000000000000000000000000602082015250565b600061308c6029836125aa565b915061309782613030565b604082019050919050565b600060208201905081810360008301526130bb8161307f565b9050919050565b6000819050919050565b6130d5816130c2565b82525050565b600067ffffffffffffffff82169050919050565b6130f8816130db565b82525050565b600061ffff82169050919050565b613115816130fe565b82525050565b600063ffffffff82169050919050565b6131348161311b565b82525050565b600060a08201905061314f60008301886130cc565b61315c60208301876130ef565b613169604083018661310c565b613176606083018561312b565b613183608083018461312b565b9695505050505050565b60008151905061319c81612664565b92915050565b6000602082840312156131b8576131b76124da565b5b60006131c68482850161318d565b91505092915050565b600081905092915050565b60006131e58261259f565b6131ef81856131cf565b93506131ff8185602086016125bb565b80840191505092915050565b600061321782856131da565b915061322382846131da565b91508190509392505050565b7f4e487b7100000000000000000000000000000000000000000000000000000000600052601160045260246000fd5b60006132698261265a565b91506132748361265a565b9250827fffffffffffffffffffffffffffffffffffffffffffffffffffffffffffffffff038211156132a9576132a861322f565b5b828201905092915050565b60006132bf8261265a565b91507fffffffffffffffffffffffffffffffffffffffffffffffffffffffffffffffff8214156132f2576132f161322f565b5b600182019050919050565b7f4f776e61626c653a206e6577206f776e657220697320746865207a65726f206160008201527f6464726573730000000000000000000000000000000000000000000000000000602082015250565b60006133596026836125aa565b9150613364826132fd565b604082019050919050565b600060208201905081810360008301526133888161334c565b9050919050565b7f4e487b7100000000000000000000000000000000000000000000000000000000600052601260045260246000fd5b60006133c98261265a565b91506133d48361265a565b9250826133e4576133e361338f565b5b828206905092915050565b60006040820190506134046000830185612ca5565b61341160208301846126ef565b9392505050565b7f4552433732313a207472616e736665722066726f6d20696e636f72726563742060008201527f6f776e6572000000000000000000000000000000000000000000000000000000602082015250565b60006134746025836125aa565b915061347f82613418565b604082019050919050565b600060208201905081810360008301526134a381613467565b9050919050565b7f4552433732313a207472616e7366657220746f20746865207a65726f2061646460008201527f7265737300000000000000000000000000000000000000000000000000000000602082015250565b60006135066024836125aa565b9150613511826134aa565b604082019050919050565b60006020820190508181036000830152613535816134f9565b9050919050565b60006135478261265a565b91506135528361265a565b9250828210156135655761356461322f565b5b828203905092915050565b7f4f776e61626c653a2063616c6c6572206973206e6f7420746865206f776e6572600082015250565b60006135a66020836125aa565b91506135b182613570565b602082019050919050565b600060208201905081810360008301526135d581613599565b9050919050565b7f4552433732313a20617070726f766520746f2063616c6c657200000000000000600082015250565b60006136126019836125aa565b915061361d826135dc565b602082019050919050565b6000602082019050818103600083015261364181613605565b9050919050565b7f4552433732313a207472616e7366657220746f206e6f6e20455243373231526560008201527f63656976657220696d706c656d656e7465720000000000000000000000000000602082015250565b60006136a46032836125aa565b91506136af82613648565b604082019050919050565b600060208201905081810360008301526136d381613697565b9050919050565b7f45524337323155524953746f726167653a2055524920736574206f66206e6f6e60008201527f6578697374656e7420746f6b656e000000000000000000000000000000000000602082015250565b6000613736602e836125aa565b9150613741826136da565b604082019050919050565b6000602082019050818103600083015261376581613729565b9050919050565b600081519050919050565b600082825260208201905092915050565b60006137938261376c565b61379d8185613777565b93506137ad8185602086016125bb565b6137b6816125ee565b840191505092915050565b60006080820190506137d660008301876126ef565b6137e360208301866126ef565b6137f06040830185612785565b81810360608301526138028184613788565b905095945050505050565b60008151905061381c81612510565b92915050565b600060208284031215613838576138376124da565b5b60006138468482850161380d565b91505092915050565b600061385a8261265a565b91506138658361265a565b9250826138755761387461338f565b5b828204905092915050565b7f4552433732313a206d696e7420746f20746865207a65726f2061646472657373600082015250565b60006138b66020836125aa565b91506138c182613880565b602082019050919050565b600060208201905081810360008301526138e5816138a9565b9050919050565b7f4552433732313a20746f6b656e20616c7265616479206d696e74656400000000600082015250565b6000613922601c836125aa565b915061392d826138ec565b602082019050919050565b6000602082019050818103600083015261395181613915565b905091905056fea2646970667358221220b8e54598cb20ed257ef044ee7689930e918f7f22cc30f5cfc3d0f4053806ed3d64736f6c63430008080033",
  "linkReferences": {},
  "deployedLinkReferences": {}
}