{
  "_format": "hh-sol-artifact-1",
  "contractName": "DynamicSvgNft",
  "sourceName": "contracts/DynamicSvgNft.sol",
  "abi": [
    {
      "inputs": [
        {
          "internalType": "address",
          "name": "priceFeedAddress",
          "type": "address"
        },
        {
          "internalType": "string",
          "name": "lowSvg",
          "type": "string"
        },
        {
          "internalType": "string",
          "name": "highSvg",
          "type": "string"
        }
      ],
      "stateMutability": "nonpayable",
      "type": "constructor"
    },
    {
      "anonymous": false,
      "inputs": [
        {
          "indexed": true,
          "internalType": "address",
          "name": "owner",
          "type": "address"
        },
        {
          "indexed": true,
          "internalType": "address",
          "name": "approved",
          "type": "address"
        },
        {
          "indexed": true,
          "internalType": "uint256",
          "name": "tokenId",
          "type": "uint256"
        }
      ],
      "name": "Approval",
      "type": "event"
    },
    {
      "anonymous": false,
      "inputs": [
        {
          "indexed": true,
          "internalType": "address",
          "name": "owner",
          "type": "address"
        },
        {
          "indexed": true,
          "internalType": "address",
          "name": "operator",
          "type": "address"
        },
        {
          "indexed": false,
          "internalType": "bool",
          "name": "approved",
          "type": "bool"
        }
      ],
      "name": "ApprovalForAll",
      "type": "event"
    },
    {
      "anonymous": false,
      "inputs": [
        {
          "indexed": true,
          "internalType": "uint256",
          "name": "tokenId",
          "type": "uint256"
        },
        {
          "indexed": false,
          "internalType": "int256",
          "name": "highValue",
          "type": "int256"
        }
      ],
      "name": "CreatedNFT",
      "type": "event"
    },
    {
      "anonymous": false,
      "inputs": [
        {
          "indexed": true,
          "internalType": "address",
          "name": "from",
          "type": "address"
        },
        {
          "indexed": true,
          "internalType": "address",
          "name": "to",
          "type": "address"
        },
        {
          "indexed": true,
          "internalType": "uint256",
          "name": "tokenId",
          "type": "uint256"
        }
      ],
      "name": "Transfer",
      "type": "event"
    },
    {
      "inputs": [
        {
          "internalType": "address",
          "name": "to",
          "type": "address"
        },
        {
          "internalType": "uint256",
          "name": "tokenId",
          "type": "uint256"
        }
      ],
      "name": "approve",
      "outputs": [],
      "stateMutability": "nonpayable",
      "type": "function"
    },
    {
      "inputs": [
        {
          "internalType": "address",
          "name": "owner",
          "type": "address"
        }
      ],
      "name": "balanceOf",
      "outputs": [
        {
          "internalType": "uint256",
          "name": "",
          "type": "uint256"
        }
      ],
      "stateMutability": "view",
      "type": "function"
    },
    {
      "inputs": [
        {
          "internalType": "uint256",
          "name": "tokenId",
          "type": "uint256"
        }
      ],
      "name": "getApproved",
      "outputs": [
        {
          "internalType": "address",
          "name": "",
          "type": "address"
        }
      ],
      "stateMutability": "view",
      "type": "function"
    },
    {
      "inputs": [
        {
          "internalType": "address",
          "name": "owner",
          "type": "address"
        },
        {
          "internalType": "address",
          "name": "operator",
          "type": "address"
        }
      ],
      "name": "isApprovedForAll",
      "outputs": [
        {
          "internalType": "bool",
          "name": "",
          "type": "bool"
        }
      ],
      "stateMutability": "view",
      "type": "function"
    },
    {
      "inputs": [
        {
          "internalType": "int256",
          "name": "highValue",
          "type": "int256"
        }
      ],
      "name": "mintNft",
      "outputs": [],
      "stateMutability": "nonpayable",
      "type": "function"
    },
    {
      "inputs": [],
      "name": "name",
      "outputs": [
        {
          "internalType": "string",
          "name": "",
          "type": "string"
        }
      ],
      "stateMutability": "view",
      "type": "function"
    },
    {
      "inputs": [
        {
          "internalType": "uint256",
          "name": "tokenId",
          "type": "uint256"
        }
      ],
      "name": "ownerOf",
      "outputs": [
        {
          "internalType": "address",
          "name": "",
          "type": "address"
        }
      ],
      "stateMutability": "view",
      "type": "function"
    },
    {
      "inputs": [
        {
          "internalType": "uint256",
          "name": "",
          "type": "uint256"
        }
      ],
      "name": "s_tokenIdToHighValue",
      "outputs": [
        {
          "internalType": "int256",
          "name": "",
          "type": "int256"
        }
      ],
      "stateMutability": "view",
      "type": "function"
    },
    {
      "inputs": [
        {
          "internalType": "address",
          "name": "from",
          "type": "address"
        },
        {
          "internalType": "address",
          "name": "to",
          "type": "address"
        },
        {
          "internalType": "uint256",
          "name": "tokenId",
          "type": "uint256"
        }
      ],
      "name": "safeTransferFrom",
      "outputs": [],
      "stateMutability": "nonpayable",
      "type": "function"
    },
    {
      "inputs": [
        {
          "internalType": "address",
          "name": "from",
          "type": "address"
        },
        {
          "internalType": "address",
          "name": "to",
          "type": "address"
        },
        {
          "internalType": "uint256",
          "name": "tokenId",
          "type": "uint256"
        },
        {
          "internalType": "bytes",
          "name": "data",
          "type": "bytes"
        }
      ],
      "name": "safeTransferFrom",
      "outputs": [],
      "stateMutability": "nonpayable",
      "type": "function"
    },
    {
      "inputs": [
        {
          "internalType": "address",
          "name": "operator",
          "type": "address"
        },
        {
          "internalType": "bool",
          "name": "approved",
          "type": "bool"
        }
      ],
      "name": "setApprovalForAll",
      "outputs": [],
      "stateMutability": "nonpayable",
      "type": "function"
    },
    {
      "inputs": [
        {
          "internalType": "bytes4",
          "name": "interfaceId",
          "type": "bytes4"
        }
      ],
      "name": "supportsInterface",
      "outputs": [
        {
          "internalType": "bool",
          "name": "",
          "type": "bool"
        }
      ],
      "stateMutability": "view",
      "type": "function"
    },
    {
      "inputs": [
        {
          "internalType": "string",
          "name": "svg",
          "type": "string"
        }
      ],
      "name": "svgToImageURI",
      "outputs": [
        {
          "internalType": "string",
          "name": "",
          "type": "string"
        }
      ],
      "stateMutability": "pure",
      "type": "function"
    },
    {
      "inputs": [],
      "name": "symbol",
      "outputs": [
        {
          "internalType": "string",
          "name": "",
          "type": "string"
        }
      ],
      "stateMutability": "view",
      "type": "function"
    },
    {
      "inputs": [
        {
          "internalType": "uint256",
          "name": "tokenId",
          "type": "uint256"
        }
      ],
      "name": "tokenURI",
      "outputs": [
        {
          "internalType": "string",
          "name": "",
          "type": "string"
        }
      ],
      "stateMutability": "view",
      "type": "function"
    },
    {
      "inputs": [
        {
          "internalType": "address",
          "name": "from",
          "type": "address"
        },
        {
          "internalType": "address",
          "name": "to",
          "type": "address"
        },
        {
          "internalType": "uint256",
          "name": "tokenId",
          "type": "uint256"
        }
      ],
      "name": "transferFrom",
      "outputs": [],
      "stateMutability": "nonpayable",
      "type": "function"
    }
  ],
  "bytecode": "0x60a06040523480156200001157600080fd5b50604051620037b9380380620037b983398181016040528101906200003791906200064f565b6040518060400160405280600f81526020017f44796e616d696320535647204e465400000000000000000000000000000000008152506040518060400160405280600381526020017f44534e00000000000000000000000000000000000000000000000000000000008152508160009080519060200190620000bb9291906200039d565b508060019080519060200190620000d49291906200039d565b5050506000600681905550620000f0826200017160201b60201c565b60079080519060200190620001079291906200039d565b5062000119816200017160201b60201c565b60089080519060200190620001309291906200039d565b508273ffffffffffffffffffffffffffffffffffffffff1660808173ffffffffffffffffffffffffffffffffffffffff1660601b815250505050506200093a565b60606000620001ac836040516020016200018c919062000736565b6040516020818303038152906040526200020f60201b62000d6c1760201c565b90506040518060400160405280601a81526020017f646174613a696d6167652f7376672b786d6c3b6261736536342c00000000000081525081604051602001620001f89291906200074f565b604051602081830303815290604052915050919050565b6060600082511415620002345760405180602001604052806000815250905062000398565b6000604051806060016040528060408152602001620037796040913990506000600360028551620002669190620007b0565b6200027291906200083c565b600462000280919062000874565b90506000602082620002939190620007b0565b67ffffffffffffffff811115620002af57620002ae620004e1565b5b6040519080825280601f01601f191660200182016040528015620002e25781602001600182028036833780820191505090505b509050818152600183018586518101602084015b8183101562000353576003830192508251603f8160121c168501518253600182019150603f81600c1c168501518253600182019150603f8160061c168501518253600182019150603f8116850151825360018201915050620002f6565b60038951066001811462000370576002811462000381576200038c565b613d3d60f01b60028303526200038c565b603d60f81b60018303525b50505050508093505050505b919050565b828054620003ab9062000904565b90600052602060002090601f016020900481019282620003cf57600085556200041b565b82601f10620003ea57805160ff19168380011785556200041b565b828001600101855582156200041b579182015b828111156200041a578251825591602001919060010190620003fd565b5b5090506200042a91906200042e565b5090565b5b80821115620004495760008160009055506001016200042f565b5090565b6000604051905090565b600080fd5b600080fd5b600073ffffffffffffffffffffffffffffffffffffffff82169050919050565b60006200048e8262000461565b9050919050565b620004a08162000481565b8114620004ac57600080fd5b50565b600081519050620004c08162000495565b92915050565b600080fd5b600080fd5b6000601f19601f8301169050919050565b7f4e487b7100000000000000000000000000000000000000000000000000000000600052604160045260246000fd5b6200051b82620004d0565b810181811067ffffffffffffffff821117156200053d576200053c620004e1565b5b80604052505050565b6000620005526200044d565b905062000560828262000510565b919050565b600067ffffffffffffffff821115620005835762000582620004e1565b5b6200058e82620004d0565b9050602081019050919050565b60005b83811015620005bb5780820151818401526020810190506200059e565b83811115620005cb576000848401525b50505050565b6000620005e8620005e28462000565565b62000546565b905082815260208101848484011115620006075762000606620004cb565b5b620006148482856200059b565b509392505050565b600082601f830112620006345762000633620004c6565b5b815162000646848260208601620005d1565b91505092915050565b6000806000606084860312156200066b576200066a62000457565b5b60006200067b86828701620004af565b935050602084015167ffffffffffffffff8111156200069f576200069e6200045c565b5b620006ad868287016200061c565b925050604084015167ffffffffffffffff811115620006d157620006d06200045c565b5b620006df868287016200061c565b9150509250925092565b600081519050919050565b600081905092915050565b60006200070c82620006e9565b620007188185620006f4565b93506200072a8185602086016200059b565b80840191505092915050565b6000620007448284620006ff565b915081905092915050565b60006200075d8285620006ff565b91506200076b8284620006ff565b91508190509392505050565b6000819050919050565b7f4e487b7100000000000000000000000000000000000000000000000000000000600052601160045260246000fd5b6000620007bd8262000777565b9150620007ca8362000777565b9250827fffffffffffffffffffffffffffffffffffffffffffffffffffffffffffffffff0382111562000802576200080162000781565b5b828201905092915050565b7f4e487b7100000000000000000000000000000000000000000000000000000000600052601260045260246000fd5b6000620008498262000777565b9150620008568362000777565b9250826200086957620008686200080d565b5b828204905092915050565b6000620008818262000777565b91506200088e8362000777565b9250817fffffffffffffffffffffffffffffffffffffffffffffffffffffffffffffffff0483118215151615620008ca57620008c962000781565b5b828202905092915050565b7f4e487b7100000000000000000000000000000000000000000000000000000000600052602260045260246000fd5b600060028204905060018216806200091d57607f821691505b60208210811415620009345762000933620008d5565b5b50919050565b60805160601c612e20620009596000396000610a850152612e206000f3fe608060405234801561001057600080fd5b50600436106101005760003560e01c80636352211e11610097578063b88d4fde11610066578063b88d4fde146102bd578063c87b56dd146102d9578063e425aded14610309578063e985e9c51461033957610100565b80636352211e1461022357806370a082311461025357806395d89b4114610283578063a22cb465146102a157610100565b80631e930812116100d35780631e9308121461019f57806323b872dd146101bb57806330d871c6146101d757806342842e0e1461020757610100565b806301ffc9a71461010557806306fdde0314610135578063081812fc14610153578063095ea7b314610183575b600080fd5b61011f600480360381019061011a9190611a4c565b610369565b60405161012c9190611a94565b60405180910390f35b61013d61044b565b60405161014a9190611b48565b60405180910390f35b61016d60048036038101906101689190611ba0565b6104dd565b60405161017a9190611c0e565b60405180910390f35b61019d60048036038101906101989190611c55565b610523565b005b6101b960048036038101906101b49190611ccb565b61063b565b005b6101d560048036038101906101d09190611cf8565b6106b6565b005b6101f160048036038101906101ec9190611e80565b610716565b6040516101fe9190611b48565b60405180910390f35b610221600480360381019061021c9190611cf8565b6107a3565b005b61023d60048036038101906102389190611ba0565b6107c3565b60405161024a9190611c0e565b60405180910390f35b61026d60048036038101906102689190611ec9565b610875565b60405161027a9190611f05565b60405180910390f35b61028b61092d565b6040516102989190611b48565b60405180910390f35b6102bb60048036038101906102b69190611f4c565b6109bf565b005b6102d760048036038101906102d2919061202d565b6109d5565b005b6102f360048036038101906102ee9190611ba0565b610a37565b6040516103009190611b48565b60405180910390f35b610323600480360381019061031e9190611ba0565b610cc0565b60405161033091906120bf565b60405180910390f35b610353600480360381019061034e91906120da565b610cd8565b6040516103609190611a94565b60405180910390f35b60007f80ac58cd000000000000000000000000000000000000000000000000000000007bffffffffffffffffffffffffffffffffffffffffffffffffffffffff1916827bffffffffffffffffffffffffffffffffffffffffffffffffffffffff1916148061043457507f5b5e139f000000000000000000000000000000000000000000000000000000007bffffffffffffffffffffffffffffffffffffffffffffffffffffffff1916827bffffffffffffffffffffffffffffffffffffffffffffffffffffffff1916145b80610444575061044382610ee5565b5b9050919050565b60606000805461045a90612149565b80601f016020809104026020016040519081016040528092919081815260200182805461048690612149565b80156104d35780601f106104a8576101008083540402835291602001916104d3565b820191906000526020600020905b8154815290600101906020018083116104b657829003601f168201915b5050505050905090565b60006104e882610f4f565b6004600083815260200190815260200160002060009054906101000a900473ffffffffffffffffffffffffffffffffffffffff169050919050565b600061052e826107c3565b90508073ffffffffffffffffffffffffffffffffffffffff168373ffffffffffffffffffffffffffffffffffffffff16141561059f576040517f08c379a0000000000000000000000000000000000000000000000000000000008152600401610596906121ed565b60405180910390fd5b8073ffffffffffffffffffffffffffffffffffffffff166105be610f9a565b73ffffffffffffffffffffffffffffffffffffffff1614806105ed57506105ec816105e7610f9a565b610cd8565b5b61062c576040517f08c379a00000000000000000000000000000000000000000000000000000000081526004016106239061227f565b60405180910390fd5b6106368383610fa2565b505050565b80600960006006548152602001908152602001600020819055506106613360065461105b565b60066000815480929190610674906122ce565b91905055506006547f882d3b5a729a8bb95cf6c0083c99b42ecd9637123d4425bd7b768877fd8af8b0826040516106ab91906120bf565b60405180910390a250565b6106c76106c1610f9a565b82611079565b610706576040517f08c379a00000000000000000000000000000000000000000000000000000000081526004016106fd90612389565b60405180910390fd5b61071183838361110e565b505050565b606060006107428360405160200161072e91906123e5565b604051602081830303815290604052610d6c565b90506040518060400160405280601a81526020017f646174613a696d6167652f7376672b786d6c3b6261736536342c0000000000008152508160405160200161078c9291906123fc565b604051602081830303815290604052915050919050565b6107be838383604051806020016040528060008152506109d5565b505050565b6000806002600084815260200190815260200160002060009054906101000a900473ffffffffffffffffffffffffffffffffffffffff169050600073ffffffffffffffffffffffffffffffffffffffff168173ffffffffffffffffffffffffffffffffffffffff16141561086c576040517f08c379a00000000000000000000000000000000000000000000000000000000081526004016108639061246c565b60405180910390fd5b80915050919050565b60008073ffffffffffffffffffffffffffffffffffffffff168273ffffffffffffffffffffffffffffffffffffffff1614156108e6576040517f08c379a00000000000000000000000000000000000000000000000000000000081526004016108dd906124fe565b60405180910390fd5b600360008373ffffffffffffffffffffffffffffffffffffffff1673ffffffffffffffffffffffffffffffffffffffff168152602001908152602001600020549050919050565b60606001805461093c90612149565b80601f016020809104026020016040519081016040528092919081815260200182805461096890612149565b80156109b55780601f1061098a576101008083540402835291602001916109b5565b820191906000526020600020905b81548152906001019060200180831161099857829003601f168201915b5050505050905090565b6109d16109ca610f9a565b8383611375565b5050565b6109e66109e0610f9a565b83611079565b610a25576040517f08c379a0000000000000000000000000000000000000000000000000000000008152600401610a1c90612389565b60405180910390fd5b610a31848484846114e2565b50505050565b6060610a428261153e565b610a81576040517f08c379a0000000000000000000000000000000000000000000000000000000008152600401610a789061256a565b60405180910390fd5b60007f000000000000000000000000000000000000000000000000000000000000000073ffffffffffffffffffffffffffffffffffffffff1663feaf968c6040518163ffffffff1660e01b815260040160a06040518083038186803b158015610ae957600080fd5b505afa158015610afd573d6000803e3d6000fd5b505050506040513d601f19601f82011682018060405250810190610b2191906125f6565b505050915050600060078054610b3690612149565b80601f0160208091040260200160405190810160405280929190818152602001828054610b6290612149565b8015610baf5780601f10610b8457610100808354040283529160200191610baf565b820191906000526020600020905b815481529060010190602001808311610b9257829003601f168201915b5050505050905060096000858152602001908152602001600020548212610c5e5760088054610bdd90612149565b80601f0160208091040260200160405190810160405280929190818152602001828054610c0990612149565b8015610c565780601f10610c2b57610100808354040283529160200191610c56565b820191906000526020600020905b815481529060010190602001808311610c3957829003601f168201915b505050505090505b610c666115aa565b610c97610c7161044b565b83604051602001610c83929190612839565b604051602081830303815290604052610d6c565b604051602001610ca89291906123fc565b60405160208183030381529060405292505050919050565b60096020528060005260406000206000915090505481565b6000600560008473ffffffffffffffffffffffffffffffffffffffff1673ffffffffffffffffffffffffffffffffffffffff16815260200190815260200160002060008373ffffffffffffffffffffffffffffffffffffffff1673ffffffffffffffffffffffffffffffffffffffff16815260200190815260200160002060009054906101000a900460ff16905092915050565b6060600082511415610d8f57604051806020016040528060008152509050610ee0565b6000604051806060016040528060408152602001612dab6040913990506000600360028551610dbe9190612889565b610dc8919061290e565b6004610dd4919061293f565b90506000602082610de59190612889565b67ffffffffffffffff811115610dfe57610dfd611d55565b5b6040519080825280601f01601f191660200182016040528015610e305781602001600182028036833780820191505090505b509050818152600183018586518101602084015b81831015610e9f576003830192508251603f8160121c168501518253600182019150603f81600c1c168501518253600182019150603f8160061c168501518253600182019150603f8116850151825360018201915050610e44565b600389510660018114610eb95760028114610ec957610ed4565b613d3d60f01b6002830352610ed4565b603d60f81b60018303525b50505050508093505050505b919050565b60007f01ffc9a7000000000000000000000000000000000000000000000000000000007bffffffffffffffffffffffffffffffffffffffffffffffffffffffff1916827bffffffffffffffffffffffffffffffffffffffffffffffffffffffff1916149050919050565b610f588161153e565b610f97576040517f08c379a0000000000000000000000000000000000000000000000000000000008152600401610f8e9061246c565b60405180910390fd5b50565b600033905090565b816004600083815260200190815260200160002060006101000a81548173ffffffffffffffffffffffffffffffffffffffff021916908373ffffffffffffffffffffffffffffffffffffffff160217905550808273ffffffffffffffffffffffffffffffffffffffff16611015836107c3565b73ffffffffffffffffffffffffffffffffffffffff167f8c5be1e5ebec7d5bd14f71427d1e84f3dd0314c0f7b2291e5b200ac8c7c3b92560405160405180910390a45050565b6110758282604051806020016040528060008152506115e7565b5050565b600080611085836107c3565b90508073ffffffffffffffffffffffffffffffffffffffff168473ffffffffffffffffffffffffffffffffffffffff1614806110c757506110c68185610cd8565b5b8061110557508373ffffffffffffffffffffffffffffffffffffffff166110ed846104dd565b73ffffffffffffffffffffffffffffffffffffffff16145b91505092915050565b8273ffffffffffffffffffffffffffffffffffffffff1661112e826107c3565b73ffffffffffffffffffffffffffffffffffffffff1614611184576040517f08c379a000000000000000000000000000000000000000000000000000000000815260040161117b90612a0b565b60405180910390fd5b600073ffffffffffffffffffffffffffffffffffffffff168273ffffffffffffffffffffffffffffffffffffffff1614156111f4576040517f08c379a00000000000000000000000000000000000000000000000000000000081526004016111eb90612a9d565b60405180910390fd5b6111ff838383611642565b61120a600082610fa2565b6001600360008573ffffffffffffffffffffffffffffffffffffffff1673ffffffffffffffffffffffffffffffffffffffff168152602001908152602001600020600082825461125a9190612abd565b925050819055506001600360008473ffffffffffffffffffffffffffffffffffffffff1673ffffffffffffffffffffffffffffffffffffffff16815260200190815260200160002060008282546112b19190612889565b92505081905550816002600083815260200190815260200160002060006101000a81548173ffffffffffffffffffffffffffffffffffffffff021916908373ffffffffffffffffffffffffffffffffffffffff160217905550808273ffffffffffffffffffffffffffffffffffffffff168473ffffffffffffffffffffffffffffffffffffffff167fddf252ad1be2c89b69c2b068fc378daa952ba7f163c4a11628f55a4df523b3ef60405160405180910390a4611370838383611647565b505050565b8173ffffffffffffffffffffffffffffffffffffffff168373ffffffffffffffffffffffffffffffffffffffff1614156113e4576040517f08c379a00000000000000000000000000000000000000000000000000000000081526004016113db90612b3d565b60405180910390fd5b80600560008573ffffffffffffffffffffffffffffffffffffffff1673ffffffffffffffffffffffffffffffffffffffff16815260200190815260200160002060008473ffffffffffffffffffffffffffffffffffffffff1673ffffffffffffffffffffffffffffffffffffffff16815260200190815260200160002060006101000a81548160ff0219169083151502179055508173ffffffffffffffffffffffffffffffffffffffff168373ffffffffffffffffffffffffffffffffffffffff167f17307eab39ab6107e8899845ad3d59bd9653f200f220920489ca2b5937696c31836040516114d59190611a94565b60405180910390a3505050565b6114ed84848461110e565b6114f98484848461164c565b611538576040517f08c379a000000000000000000000000000000000000000000000000000000000815260040161152f90612bcf565b60405180910390fd5b50505050565b60008073ffffffffffffffffffffffffffffffffffffffff166002600084815260200190815260200160002060009054906101000a900473ffffffffffffffffffffffffffffffffffffffff1673ffffffffffffffffffffffffffffffffffffffff1614159050919050565b60606040518060400160405280601a81526020017f646174613a696d6167652f7376672b786d6c3b6261736536342c000000000000815250905090565b6115f183836117e3565b6115fe600084848461164c565b61163d576040517f08c379a000000000000000000000000000000000000000000000000000000000815260040161163490612bcf565b60405180910390fd5b505050565b505050565b505050565b600061166d8473ffffffffffffffffffffffffffffffffffffffff166119bd565b156117d6578373ffffffffffffffffffffffffffffffffffffffff1663150b7a02611696610f9a565b8786866040518563ffffffff1660e01b81526004016116b89493929190612c44565b602060405180830381600087803b1580156116d257600080fd5b505af192505050801561170357506040513d601f19601f820116820180604052508101906117009190612ca5565b60015b611786573d8060008114611733576040519150601f19603f3d011682016040523d82523d6000602084013e611738565b606091505b5060008151141561177e576040517f08c379a000000000000000000000000000000000000000000000000000000000815260040161177590612bcf565b60405180910390fd5b805181602001fd5b63150b7a0260e01b7bffffffffffffffffffffffffffffffffffffffffffffffffffffffff1916817bffffffffffffffffffffffffffffffffffffffffffffffffffffffff1916149150506117db565b600190505b949350505050565b600073ffffffffffffffffffffffffffffffffffffffff168273ffffffffffffffffffffffffffffffffffffffff161415611853576040517f08c379a000000000000000000000000000000000000000000000000000000000815260040161184a90612d1e565b60405180910390fd5b61185c8161153e565b1561189c576040517f08c379a000000000000000000000000000000000000000000000000000000000815260040161189390612d8a565b60405180910390fd5b6118a860008383611642565b6001600360008473ffffffffffffffffffffffffffffffffffffffff1673ffffffffffffffffffffffffffffffffffffffff16815260200190815260200160002060008282546118f89190612889565b92505081905550816002600083815260200190815260200160002060006101000a81548173ffffffffffffffffffffffffffffffffffffffff021916908373ffffffffffffffffffffffffffffffffffffffff160217905550808273ffffffffffffffffffffffffffffffffffffffff16600073ffffffffffffffffffffffffffffffffffffffff167fddf252ad1be2c89b69c2b068fc378daa952ba7f163c4a11628f55a4df523b3ef60405160405180910390a46119b960008383611647565b5050565b6000808273ffffffffffffffffffffffffffffffffffffffff163b119050919050565b6000604051905090565b600080fd5b600080fd5b60007fffffffff0000000000000000000000000000000000000000000000000000000082169050919050565b611a29816119f4565b8114611a3457600080fd5b50565b600081359050611a4681611a20565b92915050565b600060208284031215611a6257611a616119ea565b5b6000611a7084828501611a37565b91505092915050565b60008115159050919050565b611a8e81611a79565b82525050565b6000602082019050611aa96000830184611a85565b92915050565b600081519050919050565b600082825260208201905092915050565b60005b83811015611ae9578082015181840152602081019050611ace565b83811115611af8576000848401525b50505050565b6000601f19601f8301169050919050565b6000611b1a82611aaf565b611b248185611aba565b9350611b34818560208601611acb565b611b3d81611afe565b840191505092915050565b60006020820190508181036000830152611b628184611b0f565b905092915050565b6000819050919050565b611b7d81611b6a565b8114611b8857600080fd5b50565b600081359050611b9a81611b74565b92915050565b600060208284031215611bb657611bb56119ea565b5b6000611bc484828501611b8b565b91505092915050565b600073ffffffffffffffffffffffffffffffffffffffff82169050919050565b6000611bf882611bcd565b9050919050565b611c0881611bed565b82525050565b6000602082019050611c236000830184611bff565b92915050565b611c3281611bed565b8114611c3d57600080fd5b50565b600081359050611c4f81611c29565b92915050565b60008060408385031215611c6c57611c6b6119ea565b5b6000611c7a85828601611c40565b9250506020611c8b85828601611b8b565b9150509250929050565b6000819050919050565b611ca881611c95565b8114611cb357600080fd5b50565b600081359050611cc581611c9f565b92915050565b600060208284031215611ce157611ce06119ea565b5b6000611cef84828501611cb6565b91505092915050565b600080600060608486031215611d1157611d106119ea565b5b6000611d1f86828701611c40565b9350506020611d3086828701611c40565b9250506040611d4186828701611b8b565b9150509250925092565b600080fd5b600080fd5b7f4e487b7100000000000000000000000000000000000000000000000000000000600052604160045260246000fd5b611d8d82611afe565b810181811067ffffffffffffffff82111715611dac57611dab611d55565b5b80604052505050565b6000611dbf6119e0565b9050611dcb8282611d84565b919050565b600067ffffffffffffffff821115611deb57611dea611d55565b5b611df482611afe565b9050602081019050919050565b82818337600083830152505050565b6000611e23611e1e84611dd0565b611db5565b905082815260208101848484011115611e3f57611e3e611d50565b5b611e4a848285611e01565b509392505050565b600082601f830112611e6757611e66611d4b565b5b8135611e77848260208601611e10565b91505092915050565b600060208284031215611e9657611e956119ea565b5b600082013567ffffffffffffffff811115611eb457611eb36119ef565b5b611ec084828501611e52565b91505092915050565b600060208284031215611edf57611ede6119ea565b5b6000611eed84828501611c40565b91505092915050565b611eff81611b6a565b82525050565b6000602082019050611f1a6000830184611ef6565b92915050565b611f2981611a79565b8114611f3457600080fd5b50565b600081359050611f4681611f20565b92915050565b60008060408385031215611f6357611f626119ea565b5b6000611f7185828601611c40565b9250506020611f8285828601611f37565b9150509250929050565b600067ffffffffffffffff821115611fa757611fa6611d55565b5b611fb082611afe565b9050602081019050919050565b6000611fd0611fcb84611f8c565b611db5565b905082815260208101848484011115611fec57611feb611d50565b5b611ff7848285611e01565b509392505050565b600082601f83011261201457612013611d4b565b5b8135612024848260208601611fbd565b91505092915050565b60008060008060808587031215612047576120466119ea565b5b600061205587828801611c40565b945050602061206687828801611c40565b935050604061207787828801611b8b565b925050606085013567ffffffffffffffff811115612098576120976119ef565b5b6120a487828801611fff565b91505092959194509250565b6120b981611c95565b82525050565b60006020820190506120d460008301846120b0565b92915050565b600080604083850312156120f1576120f06119ea565b5b60006120ff85828601611c40565b925050602061211085828601611c40565b9150509250929050565b7f4e487b7100000000000000000000000000000000000000000000000000000000600052602260045260246000fd5b6000600282049050600182168061216157607f821691505b602082108114156121755761217461211a565b5b50919050565b7f4552433732313a20617070726f76616c20746f2063757272656e74206f776e6560008201527f7200000000000000000000000000000000000000000000000000000000000000602082015250565b60006121d7602183611aba565b91506121e28261217b565b604082019050919050565b60006020820190508181036000830152612206816121ca565b9050919050565b7f4552433732313a20617070726f76652063616c6c6572206973206e6f7420746f60008201527f6b656e206f776e6572206e6f7220617070726f76656420666f7220616c6c0000602082015250565b6000612269603e83611aba565b91506122748261220d565b604082019050919050565b600060208201905081810360008301526122988161225c565b9050919050565b7f4e487b7100000000000000000000000000000000000000000000000000000000600052601160045260246000fd5b60006122d982611b6a565b91507fffffffffffffffffffffffffffffffffffffffffffffffffffffffffffffffff82141561230c5761230b61229f565b5b600182019050919050565b7f4552433732313a2063616c6c6572206973206e6f7420746f6b656e206f776e6560008201527f72206e6f7220617070726f766564000000000000000000000000000000000000602082015250565b6000612373602e83611aba565b915061237e82612317565b604082019050919050565b600060208201905081810360008301526123a281612366565b9050919050565b600081905092915050565b60006123bf82611aaf565b6123c981856123a9565b93506123d9818560208601611acb565b80840191505092915050565b60006123f182846123b4565b915081905092915050565b600061240882856123b4565b915061241482846123b4565b91508190509392505050565b7f4552433732313a20696e76616c696420746f6b656e2049440000000000000000600082015250565b6000612456601883611aba565b915061246182612420565b602082019050919050565b6000602082019050818103600083015261248581612449565b9050919050565b7f4552433732313a2061646472657373207a65726f206973206e6f74206120766160008201527f6c6964206f776e65720000000000000000000000000000000000000000000000602082015250565b60006124e8602983611aba565b91506124f38261248c565b604082019050919050565b60006020820190508181036000830152612517816124db565b9050919050565b7f55524920517565727920666f72206e6f6e6578697374656e7420746f6b656e00600082015250565b6000612554601f83611aba565b915061255f8261251e565b602082019050919050565b6000602082019050818103600083015261258381612547565b9050919050565b600069ffffffffffffffffffff82169050919050565b6125a98161258a565b81146125b457600080fd5b50565b6000815190506125c6816125a0565b92915050565b6000815190506125db81611c9f565b92915050565b6000815190506125f081611b74565b92915050565b600080600080600060a08688031215612612576126116119ea565b5b6000612620888289016125b7565b9550506020612631888289016125cc565b9450506040612642888289016125e1565b9350506060612653888289016125e1565b9250506080612664888289016125b7565b9150509295509295909350565b7f7b226e616d65223a220000000000000000000000000000000000000000000000600082015250565b60006126a76009836123a9565b91506126b282612671565b600982019050919050565b7f222c20226465736372697074696f6e223a22416e204e4654207468617420636860008201527f616e676573206261736564206f6e2074686520436861696e6c696e6b2046656560208201527f64222c2000000000000000000000000000000000000000000000000000000000604082015250565b600061273f6044836123a9565b915061274a826126bd565b604482019050919050565b7f2261747472696275746573223a205b7b2274726169745f74797065223a20226360008201527f6f6f6c6e657373222c202276616c7565223a203130307d5d2c2022696d61676560208201527f223a220000000000000000000000000000000000000000000000000000000000604082015250565b60006127d76043836123a9565b91506127e282612755565b604382019050919050565b7f227d000000000000000000000000000000000000000000000000000000000000600082015250565b60006128236002836123a9565b915061282e826127ed565b600282019050919050565b60006128448261269a565b915061285082856123b4565b915061285b82612732565b9150612866826127ca565b915061287282846123b4565b915061287d82612816565b91508190509392505050565b600061289482611b6a565b915061289f83611b6a565b9250827fffffffffffffffffffffffffffffffffffffffffffffffffffffffffffffffff038211156128d4576128d361229f565b5b828201905092915050565b7f4e487b7100000000000000000000000000000000000000000000000000000000600052601260045260246000fd5b600061291982611b6a565b915061292483611b6a565b925082612934576129336128df565b5b828204905092915050565b600061294a82611b6a565b915061295583611b6a565b9250817fffffffffffffffffffffffffffffffffffffffffffffffffffffffffffffffff048311821515161561298e5761298d61229f565b5b828202905092915050565b7f4552433732313a207472616e736665722066726f6d20696e636f72726563742060008201527f6f776e6572000000000000000000000000000000000000000000000000000000602082015250565b60006129f5602583611aba565b9150612a0082612999565b604082019050919050565b60006020820190508181036000830152612a24816129e8565b9050919050565b7f4552433732313a207472616e7366657220746f20746865207a65726f2061646460008201527f7265737300000000000000000000000000000000000000000000000000000000602082015250565b6000612a87602483611aba565b9150612a9282612a2b565b604082019050919050565b60006020820190508181036000830152612ab681612a7a565b9050919050565b6000612ac882611b6a565b9150612ad383611b6a565b925082821015612ae657612ae561229f565b5b828203905092915050565b7f4552433732313a20617070726f766520746f2063616c6c657200000000000000600082015250565b6000612b27601983611aba565b9150612b3282612af1565b602082019050919050565b60006020820190508181036000830152612b5681612b1a565b9050919050565b7f4552433732313a207472616e7366657220746f206e6f6e20455243373231526560008201527f63656976657220696d706c656d656e7465720000000000000000000000000000602082015250565b6000612bb9603283611aba565b9150612bc482612b5d565b604082019050919050565b60006020820190508181036000830152612be881612bac565b9050919050565b600081519050919050565b600082825260208201905092915050565b6000612c1682612bef565b612c208185612bfa565b9350612c30818560208601611acb565b612c3981611afe565b840191505092915050565b6000608082019050612c596000830187611bff565b612c666020830186611bff565b612c736040830185611ef6565b8181036060830152612c858184612c0b565b905095945050505050565b600081519050612c9f81611a20565b92915050565b600060208284031215612cbb57612cba6119ea565b5b6000612cc984828501612c90565b91505092915050565b7f4552433732313a206d696e7420746f20746865207a65726f2061646472657373600082015250565b6000612d08602083611aba565b9150612d1382612cd2565b602082019050919050565b60006020820190508181036000830152612d3781612cfb565b9050919050565b7f4552433732313a20746f6b656e20616c7265616479206d696e74656400000000600082015250565b6000612d74601c83611aba565b9150612d7f82612d3e565b602082019050919050565b60006020820190508181036000830152612da381612d67565b905091905056fe4142434445464748494a4b4c4d4e4f505152535455565758595a6162636465666768696a6b6c6d6e6f707172737475767778797a303132333435363738392b2fa2646970667358221220de92bcf8efb50dd33c84c082b35b6ffaf5f7d815c8c328986a84c9be0eb8c1bf64736f6c634300080800334142434445464748494a4b4c4d4e4f505152535455565758595a6162636465666768696a6b6c6d6e6f707172737475767778797a303132333435363738392b2f",
  "linkReferences": {},
  "deployedLinkReferences": {}
}